:10000000E07F0010D9040000F9040000F9040000AA
:10001000F9040000F9040000F904000000000000E9
:10002000000000000000000000000000F9040000D3
:10003000F904000000000000F9040000F9040000C9
:10004000F9040000F9040000F9040000F9040000BC
:10005000F9040000F9040000F9040000F9040000AC
:10006000F9040000F9040000F9040000F90400009C
:10007000F9040000F9040000F9040000F90400008C
:10008000F9040000F9040000F9040000F90400007C
:10009000F9040000F9040000F9040000F90400006C
:1000A000F9040000F9040000F9040000F90400005C
:1000B000F9040000F9040000F9040000F90400004C
:1000C000F9040000F9040000F90400000000000039
:1000D0000000000000000000000000000000000020
:1000E0000000000000000000000000000000000010
:1000F0000000000000000000000000000000000000
:1001000000000000000000000000000000000000EF
:1002F000000000000000000000000000FFFFFFFF02
:1003000080B500AF094B1B689B680021184600F0C0
:100310006DF9064B1B685B680021184600F066F912
:10032000034800F05BF90023184680BD0000001070
:10033000A010000080B400AF0A4B01221A600A4BE3
:1003400080221A60094B41221A60094B27221A6049
:10035000084B00221A60044B03221A6000BFBD46FE
:1003600080BC704708C009400CC0094028C0094043
:1003700000C0094004C0094080B483B000AF034608
:10038000FB7100BF0A4B1B6803F02003002BF9D060
:10039000084AFB79136000BF054B1B6803F040035C
:1003A000002BF9D000BF0C37BD4680BC704700BFA2
:1003B00014C0094000C0094080B400AF00BF064B24
:1003C0001B6803F00103002BF9D0044B1B68DBB260
:1003D0001846BD4680BC704714C0094000C00940A3
:1003E00080B586B000AFF860B9607A6000237B61A9
:1003F00009E0BB685A1CBA601B781846FFF7BCFFBF
:100400007B6901337B617A697B689A42F1DB7B68A7
:1004100018461837BD4680BD90B587B000AFF8606C
:10042000B9607A6000237B6109E0BC68631CBB6033
:10043000FFF7C2FF034623707B6901337B617A6952
:100440007B689A42F1DB7B6818461C37BD4690BD3D
:1004500080B582B000AF78607B68DBB21846FFF7EA
:100460008BFF0837BD4680BD80B483B000AF0B4B17
:100470007B600B4B3B6007E07A68131D7B603B6839
:10048000191D396012681A603B68064A9342F3D31B
:1004900000BF0C37BD4680BC704700BF1011000084
:1004A000000000106800001080B483B000AF084B5B
:1004B0007B6004E07B681A1D7A6000221A607B680A
:1004C000044A9342F6D300BF0C37BD4680BC704748
:1004D000680000108400001080B500AF044B054A8E
:1004E0001A60FFF7C1FFFFF7DFFFFFF709FFFEE725
:1004F00008ED00E00000000080B400AFFEE700BFA0
:1005000070B50E46054618B183690BB900F012FBB1
:10051000AB69AC6813B9284600F00CFB2C4B9C422D
:1005200020D16C68636EDB0705D4A389980502D4DB
:10053000A06D00F09CFBA38919071DD52369DBB1D1
:10054000013EA36816F8011F013BA36039BB002BD5
:1005500038DA22460A21284600F012F9013011D07B
:100560000A2511E01B4B9C4201D1AC68DAE71A4B1B
:100570009C4208BFEC68D5E72146284600F052F9B6
:100580000028DDD04FF0FF35636EDA0705D4A3896C
:100590009B0502D4A06D00F06BFB284670BD002BBC
:1005A00004DAA2699A4206DC0A2904D023685A1C9C
:1005B00022601970C5E72246284600F0E1F80130B4
:1005C000BFD1DFE70A2523685A1C22601D70DBE7D4
:1005D000D0100000F0100000B0100000024B0146E7
:1005E0001868FFF78DBF00BF0000001000294FF40E
:1005F00080630CBF0222002200F000B82DE9F7430F
:100600001E465B4B04461D680F46904625B1AB69FC
:1006100013B9284600F08EFA564B9C4266D16C689E
:10062000B8F1020F06D0B8F1010F00F29D80002E44
:10063000C0F29A80636EDA0705D4A3899B0502D4C1
:10064000A06D00F014FB2146284600F0DFF9616B35
:1006500041B104F14403994202D0284600F07EFBE8
:10066000002363630023A3616360A389180603D595
:100670002169284600F072FBA389B8F1020F23F428
:100680004A6323F00303A3816AD001AB6A46214683
:10069000284600F0EEFAA3891843A081002E2FD13E
:1006A000009E304600F04AFB0746002853D1DDF893
:1006B0000090B14548D14FF0FF350022A26004F10F
:1006C0004702226022610122B4F90C306261626E3D
:1006D00043F00203D107A38104D49B0502D4A06D8B
:1006E00000F0C6FA284603B0BDE8F083224B9C42D6
:1006F00001D1AC6894E7214B9C4208BFEC688FE7BE
:10070000002FCED0AB6913B9284600F013FAB8F128
:10071000010F08BFA389276004BF43F00103A38131
:10072000A389C4E9047613F008021BD0DA0741BF9D
:1007300000227642A260A66158BFA660656E15F0E1
:100740000105CAD00025CDE7484600F0F7FA074674
:100750000028B0D04E46A38943F08003A381D1E79F
:100760000025AAE7A260E9E74FF0FF35BAE700BF2E
:1007700000000010D0100000F0100000B0100000C9
:10078000F8B50E461446054618B183690BB900F05A
:10079000D1F9214B9C422BD16C68A369A360A3893A
:1007A0001A072FD523696BB323692068F6B2C01AE4
:1007B00063693746834204DC2146284600F026F967
:1007C00030BBA3680130013BA36023685A1C226040
:1007D0001E706369834204D0A389DB0706D50A2E05
:1007E00004D12146284600F011F988B93846F8BDF1
:1007F0000A4B9C4201D1AC68CFE7094B9C4208BF31
:10080000EC68CAE72146284600F00CF80028CBD057
:100810004FF0FF37EAE700BFD0100000F0100000F3
:10082000B0100000324B70B51D6806460C4625B16D
:10083000AB6913B9284600F07DF92E4B9C420FD1CD
:100840006C68B4F90C309AB215072CD4D00611D4C8
:100850000922326043F04003A3814FF0FF303EE0B5
:10086000254B9C4201D1AC68EBE7244B9C4208BF6E
:10087000EC68E6E7510712D5616B41B104F144031E
:10088000994202D0304600F069FA00236363A389DD
:1008900023F02403A3810023636023692360A389D9
:1008A00043F00803A38123694BB9A38903F42073A0
:1008B000B3F5007F03D02146304600F0FFF9A2894E
:1008C00012F001030CD00023A36063695B42A361B3
:1008D000236953B9B4F90C3013F08000BAD170BD5C
:1008E000920758BF6369A360F2E70020F7E700BFF3
:1008F00000000010D0100000F0100000B010000048
:100900008A892DE9F041054610070C4658D44B68FA
:10091000002B05DC0B6C002B02DC0020BDE8F08115
:10092000E66A002EF9D0002312F480522F682B6063
:1009300032D0606DA3895A0705D56368C01A636B0E
:100940000BB1236CC01A00230246E66A216A2846CE
:10095000B047431CA38906D129681D292CD82A4AEF
:10096000CA40D60728D5002262602269D9042260D5
:1009700004D5421C01D12B6803B96065616B2F60FF
:100980000029CAD004F14403994202D0284600F05D
:10099000E5F900206063C1E7216A01232846B047DA
:1009A000411CC7D12B68002BC4D01D2B01D0162BA6
:1009B00001D12F60B1E7A38943F04003A381ADE7E4
:1009C0000F69002FA9D0930718BF00230E6808BF36
:1009D0004B69A6EB07080F608B60B8F1000F9CDD38
:1009E00043463A46216A2846A66AB047002806DCF4
:1009F000A3894FF0FF3043F04003A3818EE7074403
:100A0000A8EB0008E9E700BF0100402038B50B69FA
:100A100005460C4613B90025284638BD18B1836930
:100A20000BB900F087F8144B9C421BD16C68B4F9E9
:100A30000C30002BEFD0626ED00704D4990502D49D
:100A4000A06D00F014F928462146FFF759FF636EA8
:100A50000546DA07E0D4A3899B05DDD4A06D00F03C
:100A600007F9D9E7054B9C4201D1AC68DFE7044B9D
:100A70009C4208BFEC68DAE7D0100000F0100000DC
:100A8000B0100000002310B50446C0E900338360B5
:100A900081814366C281C0E904338361194608221B
:100AA0005C3000F053F9054B24626362044BA3628F
:100AB000044BE362044B236310BD00BFC90E00006A
:100AC000EB0E0000230F0000470F0000014900F06B
:100AD000AFB800BF0D0A000070B568254A1E554327
:100AE0000E4605F1740100F085F9044640B100217D
:100AF000C0E900160C30A06005F1680200F026F98C
:100B0000204670BD014800F0B2B800BF7C00001064
:100B1000014800F0ADB800BF7C000010014800F0B3
:100B2000A6B800BF77000010014800F0A1B800BFD0
:100B30007700001010B50446FFF7F0FFA3691BB162
:100B4000BDE81040FFF7F0BFC4E912332365134B33
:100B5000134A1B68A262A34208BF0123204608BFB4
:100B6000A36100F01FF86060204600F01BF8A06051
:100B7000204600F017F80022E06004216068FFF7CB
:100B800081FF01220921A068FFF77CFF02221221C8
:100B9000E068FFF777FF0123A361D1E7AC10000005
:100BA000CD0A0000F8B50746FFF7ACFF1E4B1E68E4
:100BB000B36913B93046FFF7BDFF4836D6E90134B3
:100BC000013B03D533680BB33668F7E7B4F90C5033
:100BD000D5B9164B04F15800E360656600F046F89D
:100BE000FFF796FF2560C4E90155C4E90455A561E6
:100BF0000822294604F15C0000F0A8F8C4E90D556C
:100C0000C4E912552046F8BD6834D9E704213846B6
:100C1000FFF762FF044630600028D5D1FFF778FF68
:100C20000C233B60EEE700BFAC1000000100FFFFAB
:100C30002DE9F84380468946002600F1480414B99E
:100C40003046BDE8F883D4E90175013F01D5246839
:100C5000F5E7AB89012B07D9B5F90E30013303D085
:100C600029464046C84706436835EEE77047704757
:100C7000704770B50E46B1F90E1096B000291446B3
:100C80001D4607DA00232B60B3891A0610D44FF4EF
:100C900080630EE06A4600F07DF90028F2DB019ADD
:100CA00002F47042A2F500535A425A412A60EEE71C
:100CB00040230020236016B070BD00008B8973B5FF
:100CC0009D0706460C4607D504F1470323602361C0
:100CD0000123636102B070BD01AB6A46FFF7C9FF33
:100CE00000990546304600F085F848B9B4F90C3053
:100CF0009A05EFD423F0030343F00203A381E3E753
:100D00000D4BB362A389206043F08003A381009B55
:100D100020616361019B5BB1B4F90E10304600F0B5
:100D20004BF928B1A38923F0030343F00103A38106
:100D3000A3891D43A581CDE7CD0A0000024B0146E2
:100D4000186800F057B800BF0000001003460244C6
:100D5000934200D1704703F8011BF9E738B5054607
:100D6000002943D051F8043C0C1F002BB8BFE418F5
:100D700000F044F91E4A1368104633B963601460EA
:100D80002846BDE8384000F03FB9A3420BD921689E
:100D90006218934201BF1A685B6852182260636050
:100DA0000460EDE713465A680AB1A242FAD91968FD
:100DB0005818A0420BD1206801445818824219608B
:100DC000DED110685268014419605A60D8E702D930
:100DD0000C232B60D4E7206821188A4201BF1168D8
:100DE00052680918216062605C60C9E738BD00BFC5
:100DF00068000010F8B5CD1C25F0030508350C2D52
:100E000038BF0C25002D064601DBA94203D90C236F
:100E100033600020F8BD00F0F1F821490A6814465B
:100E20009CB9204F3B6823B92146304600F03CF87E
:100E300038602946304600F037F8431C23D10C2394
:100E40003046336000F0E0F8E3E723685B1B17D41B
:100E50000B2B03D923601C44256004E06368A24285
:100E60000CBF0B605360304600F0CEF804F10B006D
:100E7000231D20F00700C21ACCD01B1AA350C9E7CB
:100E800022466468CCE7C41C24F00304A042E3D0EB
:100E9000211A304600F008F80130DDD1CFE700BF5D
:100EA000680000106C00001038B50023054C0546A2
:100EB0000846236000F0E0F8431C02D1236803B128
:100EC0002B6038BD8000001010B50C46B1F90E1033
:100ED00000F0A0F80028ABBF636DA3891B1823F4B2
:100EE0008053ACBF6365A38110BD2DE9F0411F465F
:100EF0008B890546DB050C46164605D502230022E4
:100F0000B1F90E1000F068F8A389324623F480533B
:100F1000A381B4F90E103B462846BDE8F04100F02D
:100F200017B810B50C46B1F90E1000F055F8431C77
:100F3000A38915BF606523F4805343F48053A381D4
:100F400018BFA38110BDB1F90E1000F013B8000056
:100F500038B50546084611460022054C22601A465F
:100F6000FFF73EFA431C02D1236803B12B6038BD62
:100F70008000001038B50023054C05460846236064
:100F800000F05AF8431C02D1236803B12B6038BD2E
:100F90008000001038B50023064C0546084611466F
:100FA000236000F051F8431C02D1236803B12B6089
:100FB00038BD00BF8000001038B50023054C054641
:100FC0000846236000F048F8431C02D1236803B1AF
:100FD0002B6038BD8000001038B505460846114624
:100FE0000022054C22601A4600F03EF8431C02D154
:100FF000236803B12B6038BD800000100148FFF763
:1010000036BE00BF780000100148FFF731BE00BFB8
:101010007800001038B50546084611460022054CF8
:1010200022601A46FFF7F8F9431C02D1236803B186
:101030002B6038BD800000105822024B4FF0FF306B
:101040001A607047800000105822024B4FF0FF30AA
:101050001A607047800000105822024B00201A606E
:10106000704700BF800000105822024B4FF0FF3045
:101070001A60704780000010044A05491368002B6D
:1010800008BF0B46184410601846704770000010E7
:101090008400001068656C6C6F00000000000000A8
:1010A00048656C6C6F20576F726C64000400001010
:1010B0000000000000000000000000000000000030
:1010C0000000000000000000000000000000000020
:1010D0000000000000000000000000000000000010
:1010E0000000000000000000000000000000000000
:1010F00000000000000000000000000000000000F0
:1011000000000000000000000000000000000000DF
:101110000400001000000000D0100000F0100000DB
:10112000B0100000000000000000000000000000FF
:1011300000000000000000000000000000000000AF
:10114000000000000000000000000000000000009F
:10115000000000000000000000000000000000008F
:10116000000000000000000000000000000000007F
:08117000000000000000000077
:04000003000004D91C
:00000001FF
